:1000000000000220A9020000D5020000D502000075
:10001000D5020000D5020000D5020000D502000084
:10002000D5020000D5020000D5020000D502000074
:10003000D5020000D4020000D50200005D7A000065
:10004000D5020000D502000089700000D502000032
:10005000D50200002D570000D5020000D502000097
:10006000D5020000D5020000D5020000D502000034
:10007000D5020000D5020000297B0000D502000057
:10008000D5020000D5020000D5020000D502000014
:10009000D5020000D5020000D5020000D502000004
:1000A00021800000D5020000D5020000D50200002A
:1000B000D5020000D5020000D5020000D5020000E4
:1000C000D5020000D5020000D5020000D5020000D4
:1000D000D5020000D5020000D502000010B5054C85
:1000E000237833B9044B13B10448AFF300800123E4
:1000F000237010BD8000002000000000389E00002A
:1001000008B5034B1BB103490348AFF3008008BD9A
:100110000000000084000020389E0000154B002BDA
:1001200008BF134B9D46A3F5803A00218B460F462E
:100130001348144A121A08F030FD0F4B002B00D060
:1001400098470E4B002B00D0984700200021040058
:100150000D000D48002802D00C48AFF3008008F0D5
:10016000EDFC2000290007F03FFD08F0D3FC00BFA4
:100170000000080000000220000000000000000055
:100180008000002018030020000000000000000094
:1001900080B582B000AF3A4B5B6C394A43F40053F0
:1001A0005364384BD3F82031364A43F00403C2F885
:1001B0002031344BD3F82031324A23F44073C2F853
:1001C0002031304BD3F8B8302E4A23F47063C2F894
:1001D000B8302C4BD3F8B8302A4A43F48063C2F8C5
:1001E000B830274B10221A6200BF254BDB6A03F0A0
:1001F0002003002BF9D0244B1B68234A43F0010352
:100200001360214BDB68204A43F08073D3601F4B9F
:100210001F4A1A601F4801F053FE034603F5D52319
:1002200003F2FC437B607B68DB081B4AA2FB0323D1
:100230009B0A3B60194A3B68013B1361174B022242
:10024000C3F8F020154B4FF48072C3F804234FF02D
:100250006043134AC3F8B02F4FF06043114AC3F80C
:10026000802E4FF06043D3F8003E4FF0604243F0E1
:100270000103C2F8003E012318460837BD4680BD81
:1002800000800C4000600040F0ED00E0001000E055
:10029000FF13014006000E0017916502000004E004
:1002A00055CEACC509000100064880470649074AFB
:1002B000074B9A42BEBF51F8040B42F8040BF8E713
:1002C000FFF72CFF4D040000449E000000000020BA
:1002D00080000020FEE700BF80B400AF034BDB6C62
:1002E0001B0EDBB21846BD4680BC7047B081E00FE4
:1002F00080B582B000AF00F01FF87860074B5B68F4
:1003000003F00F037A6822FA03F37B60044A7B68E8
:1003100013607B6818460837BD4680BD00800C40DE
:100320000800002080B400AF024B1846BD4680BCD8
:10033000704700BF006CDC0280B582B000AF334B69
:10034000DB6A03F47053B3F5805F0AD0B3F5005F46
:1003500003D0B3F5006F08D00BE02D4B1B687B601A
:1003600047E04FF400437B6043E02A4B1B687B600F
:100370003FE0264BDB6803F4E063B3F5007F1BD05E
:10038000B3F5007F05D8002B24D0B3F5807F16D0BD
:100390002BE0B3F5806F09D0B3F5A06F03D0B3F5B0
:1003A000407F06D021E01C4B7B6021E01B4B7B6033
:1003B0001EE01B4B7B601BE01A4B7B6018E0FFF7D5
:1003C0008BFF0346122B02D9174B7B6010E0174BB3
:1003D0007B600DE0FFF780FF0346122B02D9144B20
:1003E0007B6005E0134B7B6002E000237B6000BF75
:1003F00000BF064B1B689B0B03F0070301337A68B1
:10040000B2FBF3F318460837BD4680BD00800C40B0
:100410000400002000000020003FAB01406F4001BD
:10042000809FD500C0D8A70040B56400C0CF6A0047
:10043000804F120040420F0080B400AF024B1B6897
:100440001846BD4680BC70470000002080B400AF55
:10045000034B044A9A6000BFBD4680BC704700BF92
:1004600000ED00E00000000080B400AF4FF4004356
:100470001846BD4680BC704780B400AF4FF47A7315
:100480001846BD4680BC704780B400AF024B1B6865
:100490001846BD4680BC70470400002080B500AF00
:1004A00000F00AFA034683F00103DBB2002B02D00E
:1004B000094800F025FA002306220749812003F0AD
:1004C000B9FD064B1B789B00054A1946002006F033
:1004D00073FF00BF80BD00BFAC000020A000002063
:1004E0009D04000080B584B000AF0346B9607A6017
:1004F000FB7397F90F30002B0DD1BB68012B0AD18C
:10050000074B1B68002B06D0054B1B68054A126879
:10051000D2B210469847002318461037BD4680BD1A
:10052000A80000209C00002080B582B000AF786059
:100530007B681B68094A13607B685B68084A136024
:1005400006220021074808F028FB06220021064861
:1005500008F023FB00BF0837BD4680BDA400002083
:10056000A8000020AC000020B400002080B582B0BC
:1005700000AF78600E4B7A681068186092889A8095
:100580000C4B1B78002B03D0786800F0F9F90BE0D6
:10059000094B7A681068186092889A8000230622B6
:1005A0000549812003F046FD00BF0837BD4680BDE8
:1005B000B4000020A0000020AC00002080B588B06E
:1005C00000AF78606FF00203FB617B681B7803F07B
:1005D0006003DBB2002B53D17B681B7823F07F03D1
:1005E000DBB2002B4CD07B681B7803F01F03DBB21F
:1005F000012B45D17B685B78062B00D011E17B682D
:100600005B889BB21B0A9BB2222B15D12E233B6128
:100610007B689A79DB791B021343FB81FA893B697A
:10062000934228BF13461A4600238049002003F056
:1006300001FD0023FB6121E07B685B889BB21B0A04
:100640009BB2212B1AD17A4B1B6809221946794893
:1006500008F098FA0923BB617B689A79DB791B0261
:100660001343FB82FA8ABB699A42A8BF1A46002349
:100670007049002003F0DEFC0023FB6100BFD0E0E6
:100680007B681B7803F06003DBB2202B40F0C9804D
:100690007B681B7803F01F03DBB2012B40F0C180A5
:1006A0007B689B889BB2002B40F0BB807B685B78AB
:1006B000013B092B00F2B58001A252F823F000BFE4
:1006C00033070000D90700002308000023080000BA
:1006D000230800002308000023080000230800006E
:1006E000E9060000770700007B685B889BB21B0A65
:1006F0009BB2022B40F08E807B685B889BB2DBB2A2
:10070000002B40F087807B68DB889BB2012B40F098
:1007100081807B681B7823F07F03DBB2002B79D1CB
:10072000454B01224549002003F0B4FB0023FB6147
:1007300070E07B685B889BB21B0A9BB2012B6BD17C
:100740007B685B889BB2DBB2002B65D17B68DB8862
:100750009BB2082B60D17B681B7823F07F03DBB250
:10076000002B59D0002306223549812003F062FC7A
:100770000023FB6150E07B685B889BB2DBB2002BFF
:100780004CD17B68DB889BB2002B47D17B681B7800
:1007900023F07F03DBB2002B40D17B685B889BB2E8
:1007A0001B0A9BB2DAB2274B1A70264B1B78002B20
:1007B00006D0244B1B78052B02D8224B06221A7038
:1007C000002006F09DFE1F4B1B78002B01D0FFF789
:1007D00065FE0023FB6121E07B685B889BB2002BF8
:1007E0001ED17B68DB889BB2012B19D17B681B78FB
:1007F00023F07F03DBB2002B12D0104B114A12788A
:100800001A70002301220D49002003F013FC00237D
:10081000FB6105E000BF04E000BF02E000BF00E0B4
:1008200000BFFB6918462037BD4680BD9493000089
:10083000A4000020BC000020E50400009C00002073
:10084000B4000020A000002080B582B000AF0346B5
:100850000A46FB711346BB71BB79052B14D1FB799A
:10086000062B04D0124B7D221A7000F07BF8104B3F
:100870001B78002B18D00E4B1B789B000D4A194695
:10088000002006F099FD0FE0FB79052B06D1BB791E
:10089000062B03D0002006F033FE05E0BB79062BC3
:1008A00002D1002006F02CFE00BF0837BD4680BDF7
:1008B000A00000209D04000080B400AF064B1A6821
:1008C000054B5B689A420CBF01230023DBB218463C
:1008D000BD4680BC704700BF2802002080B400AF36
:1008E000064B1A68054B5B68D31A0F2B8CBF01238C
:1008F0000023DBB21846BD4680BC704728020020AA
:1009000080B582B000AF7860FFF7D6FF034683F072
:100910000103DBB2002B1DD0114B5B685A1C104940
:100920004A6003F00F0278680D4913465B001344D8
:100930005B000B4403F108020346116819609288BA
:100940009A80074B5B68013303F00F03044A53603E
:10095000012300E0002318460837BD4680BD00BFD4
:100960002802002080B400AF044B00225A60034BE1
:1009700000221A6000BFBD4680BC704728020020DC
:1009800080B582B000AF7860FFF7A8FF034683F020
:100990000103DBB2002B1BD0104B1B685A1C0F4904
:1009A0000A6003F00F020D4913465B0013445B001D
:1009B0000B4408337A681168196092889A80074B53
:1009C0001B68013303F00F03044A1360012300E0A6
:1009D000002318460837BD4680BD00BF280200200E
:1009E00080B483B000AF0346FB71FB79002B03D0CA
:1009F000054B01221A6602E0034B00221A6600BF73
:100A00000C37BD4680BC704700A0084080B483B05E
:100A100000AF786000BF054B5A6E7B681340002B17
:100A2000F9D100BF0C37BD4680BC704700A008401C
:100A300080B483B000AF7860054B9A6A7B68DB4373
:100A4000034913408B6200BF0C37BD4680BC704722
:100A500000A0084080B500AF00222849002002F025
:100A600003F900222549012002F0FEF80022234963
:100A7000022002F0F9F800222049032002F0F4F8E5
:100A800000221E49042002F0EFF800221B49052035
:100A900002F0EAF800221949062002F0E5F80022E7
:100AA0001649072002F0E0F80022FF21002002F0A2
:100AB000A7F90022FF21012002F0A2F90022FF2164
:100AC000022002F09DF90022FF21032002F098F994
:100AD0000022FF21042002F093F90022FF210520CB
:100AE00002F08EF90022FF21062002F089F900228F
:100AF000FF21072002F084F900BF80BD00F00FF055
:100B000080B500AF00222649072002F0ADF8002290
:100B10002449062002F0A8F800222249052002F00C
:100B2000A3F800221F49042002F09EF800221D496C
:100B3000032002F099F800221A49022002F094F8EA
:100B400000221849012002F08FF800224FF02041C6
:100B5000002002F089F800220721072002F050F956
:100B600000220721062002F04BF900220721052070
:100B700002F046F900220721042002F041F9002288
:100B80000721032002F03CF900220721022002F095
:100B900037F900220721012002F032F900BF80BDA1
:100BA00000E00F5000E00FF080B582B000AF0346C8
:100BB000FB710121244801F019F90321234801F0B8
:100BC00039FB4021224800F08FFF012001F09CFCFE
:100BD0000121204801F00AF94FF0FF30FFF728FF0C
:100BE0001D4801F0BFFE0121082001F023FF012173
:100BF000102001F01FFF0121802001F01BFF0121C7
:100C00004FF4807001F016FF01214FF4007001F0E5
:100C100011FFFB79002B0DD04FF4402002F0B8F902
:100C20004FF4803001F0E4FE0C4BDB6F0B4A43F0D5
:100C30000803D367FFF70EFF4FF0FF30FFF7E6FE24
:100C400000BF0837BD4680BDD0433E0002001E00F5
:100C500080002A0000362C00A096000000800C4086
:100C600080B58AB000AF78607B6842F20E72934222
:100C700002DD42F20F737B607B6813F57A7F01DC43
:100C80003D4B7B607B68002B06DA786807F03EFFFF
:100C900078600123BB6101E00023BB614FF0FF30AE
:100CA000FFF7B4FE0120FFF79BFE00F06DF8012373
:100CB000FB6100233B6254E07A68FB6992FBF3F22C
:100CC0002E4B83FB02139910D317C91A0B469B00B6
:100CD0000B445B00D11A0B46FB82BB69012B04D18C
:100CE0003B6A032B01D11023FB82FB8A244A32F892
:100CF0001330BB8200237B6227E022493A6A134605
:100D0000DB009B1A5B00CA187B6A1344CB331B7849
:100D10003B611C493A6A1346DB009B1A5B00CA1808
:100D20007B6A1344C4331B78FB60BA8A7B6A42FA3D
:100D300003F303F00103002B04D001223969F868A2
:100D400001F098FE7B6A01337B627B6A062BD4DD5F
:100D5000FA6913469B0013445B00FB613B6A013355
:100D60003B623B6A032BA7DD0020FFF739FE00BF83
:100D70002837BD4680BD00BF19FCFFFF6766666669
:100D80007C960000C493000080B500AF002278215B
:100D9000012002F035F800227821022002F030F81C
:100DA00000227821032002F02BF800227821042071
:100DB00002F026F800227821052002F021F8002216
:100DC0007821062002F01CF800227821072002F08A
:100DD00017F800BF80BD000080B584B000AF0346A7
:100DE0003960FB710023FB600023BB60FB790E2B95
:100DF0006BD801A252F823F0350E00003F0E000020
:100E0000490E0000530E00005D0E0000670E00004A
:100E1000710E00007B0E0000850E00008F0E00009A
:100E2000990E0000A30E0000AD0E0000B70E0000EA
:100E3000C10E00000123FB600C23BB6046E00023D1
:100E4000FB602023BB6041E00323FB602723BB60E2
:100E50003CE00223FB600C23BB6037E00023FB6017
:100E60001C23BB6032E00323FB600C23BB602DE03E
:100E70000423FB600C23BB6028E00023FB601E23DF
:100E8000BB6023E00523FB602723BB601EE000233B
:100E9000FB602223BB6019E00023FB602323BB60BF
:100EA00014E00723FB600C23BB600FE00523FB600D
:100EB0000C23BB600AE00623FB600C23BB6005E04B
:100EC0000723FB601D23BB6000E000BF3B68002BD5
:100ED00005D00122B968F86801F0CCFD04E00022D9
:100EE000B968F86801F0C6FD00BF1037BD4680BD87
:100EF00080B58AB000AF7860786807F005FF0346D8
:100F0000BB6100233B624FF0FF30FFF77FFD012004
:100F1000FFF766FDFFF7F4FD00233B6245E03A6A08
:100F2000BB699A4203DA7B681B787B6201E020236D
:100F30007B627B6A203B7B62214A7B6A32F81330FA
:100F4000FB820023FB6127E01E493A6A1346DB005F
:100F50009B1A9B00CA18FB6913440E331B783B6134
:100F600018493A6A1346DB009B1A9B00CA18FB69B2
:100F700013441B78FB60FA8AFB6942FA03F303F01F
:100F80000103002B05D0FB6839690122184601F0E6
:100F900071FDFB690133FB61FB690D2BD4DD7B68BF
:100FA00001337B603B6A01333B623B6A062BB6DD53
:100FB0000020FFF715FD00BF2837BD4680BD00BFEC
:100FC000C4950000C493000080B489B000AF78607D
:100FD0000B46FB701346BB70BB78002B04D010236C
:100FE0007B61464BBB6103E000237B61444BBB61EB
:100FF0007B685B6BBA6913403B610023FB617B68D4
:10100000404A934274D1404BFB60FB78062B64D876
:1010100001A252F823F000BF351000005710000065
:101020007B100000A1100000DB100000DB100000AE
:10103000C9100000FB681B681B0A1B0203F4FE4377
:10104000FA691343FB61FB681B6803F07F03FA69CD
:101050001343FB6144E0FB681B681B0E1B0203F497
:10106000FE43FA691343FB61FB681B681B0C03F02A
:101070007F03FA691343FB6132E0FB6804331B68AA
:101080001B0A1B0203F4FE43FA691343FB61FB686E
:1010900004331B6803F07F03FA691343FB611FE00D
:1010A000FB6804331B681B0E1B0203F4FE43FA6942
:1010B0001343FB61FB6804331B681B0C03F07F03C5
:1010C000FA691343FB610BE0FB6808331B6803F00C
:1010D0007F03FA691343FB6102E00023FB6100BF59
:1010E000FA697B699A403B691A437B685A6300E05E
:1010F00000BF2437BD4680BC704700BFFFFF808023
:101100008080FFFF00200040B481E00F80B584B0F4
:1011100000AF786039603B681B79FB727B682B4AB3
:10112000934204D040F27F11294805F0DCFAFB7AA3
:10113000002B06D10021274800F0A8F80346FB72D7
:101140001CE00021234800F0A1F803461A46FB7A70
:10115000934204D24FF4C5711D4805F0C4FA002132
:101160004FF4FA4000F092F803461A46FB7A934295
:1011700004D940F28B11164805F0B5FA7B680A22B3
:101180005A603B681B781A063B68DB781B0403F443
:10119000F8131A43FB7A1B0203F4FE431A433B681D
:1011A0005B781B0113433A6892781343FB603B68FA
:1011B0005B79002B03D0FB6843F00803FB607B687E
:1011C000FA681A6000BF1037BD4680BD002000409D
:1011D000B4960000405DC60080B584B000AF786072
:1011E00039607B68274A934204D040F25231264846
:1011F00005F079FA7B6802225A603B689B780022EE
:1012000019467868FFF7E0FE3B681B781A073B68D1
:101210005B781B0513433A68127912021A433B6844
:10122000DB781B011343FB603B689B79002B03D0E9
:10123000FB6843F08073FB603B68DB79002B03D0D5
:10124000FB6843F00403FB603B685B79002B03D031
:10125000FB6843F00203FB603B681B7A002B03D062
:10126000FB6843F00103FB603B689B781B04FA6852
:101270001343FB607B68FA68DA6000BF1037BD4635
:1012800080BD00BF00200040B496000080B584B04F
:1012900000AF786039607B68164A934202D9154BDB
:1012A0007B6006E07B68B3F5FA4F02D24FF4FA4355
:1012B0007B603B68002B03D10F4800F001FE3860D3
:1012C0003A687B6813445A1E7B68B2FBF3F3FB60F9
:1012D000FB68002B02D0FB68013BFB60FB687F2BA7
:1012E00001D97F23FB60FB68DBB218461037BD468F
:1012F00080BD00BF405DC6004081040080B582B063
:1013000000AF78607B68002B08D1114800F0D8FD51
:1013100078607B68002B01D101237B607B680D4ADC
:10132000934201D90B4B7B607B6803F5742303F276
:101330003F237B607B68084AA2FB03239B0C7B60F6
:101340007B68DBB2013BDBB218460837BD4680BD87
:10135000408104000048E80183DE1B4380B487B06D
:1013600000AFF860B9607A60FB6803F10473DA00DB
:10137000BB6813449B007B617B697A681A6000BF7D
:101380001C37BD4680BC704780B485B000AF786024
:1013900039607B6803F10473DA003B6813449B00F7
:1013A000FB60FB681B6818461437BD4680BC70475D
:1013B00080B582B000AF78607B681F2B04D94FF4F2
:1013C0009671054805F08FF901227B6802FA03F354
:1013D00018460837BD4680BDC896000080B584B069
:1013E00000AF78607B68002B03D07B68B3F5004FBB
:1013F00004D940F6C221074805F075F97B68B3FAB5
:1014000083F3DBB2C3F11F03FB60FB6818461037A0
:10141000BD4680BD3097000080B400AF034BDB6C4D
:101420001B0EDBB21846BD4680BC7047B081E00F92
:1014300080B400AF034BDB6C1B0CDBB21846BD461F
:1014400080BC7047B081E00F80B582B000AFFFF77D
:10145000EFFF03464A2B04D0792B02D0482B23D030
:1014600024E0174B1B699BB21B029BB203F47C5315
:10147000FB80134B9B691B091B0103F0F0039AB21D
:10148000FB881343FB800E4BDB691B0903F00F0342
:101490009AB2FB881343FB80FB88B3F5017F01D32D
:1014A000084B09E0084B07E0074B05E04FF44A61A1
:1014B000064805F018F9002318460837BD4680BDD8
:1014C000D0FF0FE000366E010048E801949700005D
:1014D00080B584B000AF78600123FB60FFF7B4FFF4
:1014E00002467B68934204D80023FB600023BB6064
:1014F0000BE0FFF7A9FF03465B007A689A4202D827
:101500000123BB6001E00223BB60FA681E2108488A
:10151000FFF724FF064B5B6823F48072BB681B0255
:10152000034913434B6000BF1037BD4680BD00BF69
:1015300000800C4080B582B000AF1E210448FFF748
:1015400023FF78607B6818460837BD4680BD00BF22
:1015500000800C4080B582B000AF244B5B6903F47F
:10156000E063B3F5007F1CD0B3F5007F05D8002BF6
:1015700025D0B3F5807F1FD02AE0B3F5C06F24D00B
:10158000B3F5E06F1ED0B3F5407F21D1FFF744FFE4
:101590000346122B02D9164B7B6021E0154B7B6072
:1015A0001EE0FFF739FF0346122B02D9124B7B6076
:1015B00016E0124B7B6013E0114B7B6010E0114B87
:1015C0007B600DE0104B7B600AE0104B7B6007E016
:1015D00000237B6040F622510D4805F084F800BFDF
:1015E0007B6818460837BD4680BD00BF00800C40B0
:1015F000804F120040420F0040B56400C0CF6A0027
:10160000C0D8A700809FD500406F4001003FAB01CC
:101610009497000080B582B000AF0F4800F056FDEF
:101620000346FB70FB78072B05D0092B07D1FEF78B
:1016300083FE78600BE0FFF78DFF786007E0002302
:101640007B6040F65C51054805F04DF800BF7B68B3
:1016500018460837BD4680BD06000E00949700006E
:1016600080B485B000AF78603960204B5B6803F0D0
:101670000703FB60FB68012B01D9042B02D1002377
:10168000FB7202E00123FB7200BF7B68184A9342A1
:1016900007D9FB7A002B01D0052300E00423FB606F
:1016A00016E07B68124A93420BD87B68114A93423A
:1016B00007D9FB7A002B01D0032300E00123FB6054
:1016C00006E0FB7A002B01D0022300E00023FB6040
:1016D000064B5B6823F007020449FB6813434B6029
:1016E00000BF1437BD4680BC704700BF00000C40EF
:1016F0000048E8010024F40080B582B000AF0E4B32
:10170000DB6B002B14BF01230023FB710A4B41F656
:101710007132DA63FEF706FE034600211846FFF732
:101720009FFFFB79002B02D0034B0022DA6300BF3E
:101730000837BD4680BD00BF00000C4080B584B0B6
:1017400000AF786039600C4BDB6B002B14BF0123BA
:101750000023FB73084B41F67132DA63396878680D
:10176000FFF77EFFFB7B002B02D0034B0022DA63E6
:1017700000BF1037BD4680BD00000C4090B585B05D
:1017800000AF78600023BB607B683B4A934208D07F
:101790003A4A934205D040F69A71394804F0A3FFC3
:1017A00000E000BF786800F091FC0346FB607B68B6
:1017B000314A934203D0314A934206D00CE0314B78
:1017C0009B6A03F00303FB600CE02E4B9B6A9B08B3
:1017D00003F00303FB6005E040F6C971284804F0FC
:1017E00082FF00BFFB68032B38D801A252F823F018
:1017F0002718000001180000091800001118000047
:10180000FEF732FEB86032E0FEF73EFEB8602EE032
:10181000FEF76EFD0446FFF78DFE0346013324FA02
:1018200003F3BB6023E00023BB607B68124A934252
:1018300003D07B68114A934218D1124B9A6A7B6895
:101840000D498B4201D1102300E0142322FA03F347
:10185000002B0BD0FEF710FEB86007E00023BB6042
:1018600040F6F471064804F03EFF00E000BFBB689C
:1018700018461437BD4690BD02001E00030020002C
:101880009497000000800C4080B483B000AF786073
:10189000094B5B6D03F00103002B07D100BF064B22
:1018A0001A6D7B681340002BF9D100E000BF0C37A4
:1018B000BD4680BC704700BF00800C4080B582B040
:1018C00000AF104800F002FC0346FB70FB78032BCE
:1018D00007D0092B09D0022B0BD1FEF7D5FD78607C
:1018E0000AE0FEF7C1FD786006E0FEF725FD7860AE
:1018F00002E000237B6000BF7B6818460837BD46C6
:1019000080BD00BF0723260080B400AF00BFBD46E6
:1019100080BC704780B400AF00BFBD4680BC70473C
:1019200090B585B000AF78607B681B0903F00F03AA
:10193000BB60BB68013B0C2B00F2B88001A252F8DF
:1019400023F000BF79190000AD1A0000AD1A0000A5
:1019500089190000AD1A0000AD1A00009D190000A1
:10196000CB190000611A0000AD1A0000AD1A00008A
:10197000AD1A0000B1190000534B1B689B0B03F01C
:1019800007030133FB6099E04F4B9B6803F00F03A3
:10199000FB60F868FFF70CFDF8608FE04A4B5B686E
:1019A00003F00F03FB60F868FFF702FDF86085E0C5
:1019B000454B5B681B0A03F00103FB60FB680133C6
:1019C0001846FFF7F5FCF86078E07B683F4A9342E1
:1019D00018D03E4A934203D83D4A934207D036E09E
:1019E0003C4A934219D03C4A934226D02FE0364BD2
:1019F0009B6E1B0903F00F03FB60F868FFF7D8FC30
:101A0000F8602CE0304B9B6E1B0A03F00F03FB6069
:101A1000F868FFF7CDFCF86021E02B4B9B6E1B0BA9
:101A200003F003041020FFF7D9FC03462344FB60B6
:101A3000F868FFF7BDFCF86011E0234B9B6E03F0E4
:101A40000303FB60F868FFF7B3FCF86007E00123CD
:101A5000FB6041F2B821214804F045FE00BF2DE0B3
:101A60007B681F4A934203D01E4A93420AD014E077
:101A7000154B1B6F03F00303FB60F868FFF798FC3E
:101A8000F86012E0104B1B6F1B0903F00303FB60AF
:101A9000F868FFF78DFCF86007E00123FB6041F276
:101AA000D1210E4804F01FFE00BF07E00123FB60B8
:101AB00041F2D821094804F016FE00BFFB68184621
:101AC0001437BD4690BD00BF00800C408026160034
:101AD0008016120080002A0080062E0094970000D5
:101AE00090071A0090171C0090B585B000AF786081
:101AF00039607B681B0903F00F03FB60FB68013B47
:101B00000C2B00F2598101A252F823F0411B000076
:101B1000B91D0000B91D00007F1B0000B91D0000A9
:101B2000B91D0000D11B00002D1C0000391D000054
:101B3000B91D0000B91D0000B91D0000B11B000057
:101B40003B68002B02D03B68082B04D941F20531D9
:101B50009E4804F0C8FDFFF7CFFD9D4B1B6823F4A2
:101B6000E0323B68013B9B03994913430B60FEF74E
:101B7000BFFBB8600021B868FFF7E0FD22E13B68D9
:101B8000002B03D03B68B3F5007F04D941F2183134
:101B90008E4804F0A8FD3868FFF720FC38608C4BB5
:101BA0009B6823F00F028A493B6813438B6009E16D
:101BB0003868FFF713FC0346013B3B60844B5B68CE
:101BC00023F480723B681B02814913434B60F9E0A8
:101BD0003B68002B03D03B68B3F5007F04D941F28A
:101BE0002E317A4804F07FFDFFF786FDFEF780FB7B
:101BF00002463B68B2FBF3F31846FFF769FC38680E
:101C0000FFF7ECFB3860724B5B6823F00F02704902
:101C10003B6813434B60FEF76BFBB8600021B8686C
:101C2000FFF78CFDB868FFF753FCCBE07B68694A8F
:101C3000934227D0674A934203D8674A934207D01A
:101C400073E0664A934237D0654A934255D06CE0C0
:101C50003B68B3F5004F04D941F24C315B4804F0C6
:101C600042FD0420FFF710FE3868FFF7B7FB38602D
:101C7000574B9B6E23F0F0023B681B015449134302
:101C80008B6658E03B68B3F5004F04D941F25A31F6
:101C90004E4804F028FD0420FFF7F6FD3868FFF7F2
:101CA0009DFB38604A4B9B6E23F470623B681B02BD
:101CB000474913438B663EE03B680F2B02D93B68D4
:101CC000802B04D941F26931404804F00CFD042016
:101CD000FFF7DAFD3868FFF781FB38603C4B9B6EFD
:101CE00023F440541020FFF779FB02463B689B1A0F
:101CF0001B03374A234393661DE03B68082B04D936
:101D000041F27931314804F0EEFC0420FFF7BCFDCC
:101D10003868FFF763FB38602D4B9B6E23F003029E
:101D20002B493B6813438B6605E041F28731274816
:101D300004F0D9FC00BF45E07B682A4A934203D0F7
:101D4000294A934218D030E03B68082B04D941F26D
:101D500090311E4804F0C7FC4020FFF795FD38681D
:101D6000FFF73CFB38601A4B1B6F23F00302184946
:101D70003B6813430B671EE03B68082B04D941F214
:101D80009F31124804F0AFFC4020FFF77DFD38681A
:101D9000FFF724FB38600E4B1B6F23F030023B68CB
:101DA0001B010B4913430B6705E041F2AD310748B6
:101DB00004F099FC00BF05E041F2B331034804F0A0
:101DC00092FC00BF00BF1437BD4690BD9497000041
:101DD00000800C40802616008016120080002A0029
:101DE00080062E0090071A0090171C0080B586B060
:101DF00000AF78600B46FB7000233B617B681B0AD9
:101E000003F00F03013B092B32D801A252F823F053
:101E10004B1E0000511E0000391E0000711E000004
:101E2000711E0000571E0000611E0000711E0000A0
:101E3000711E00006B1E00001A4B7B61FEF758FA02
:101E400003461846FFF744FB18E0174B7B6115E08B
:101E5000164B7B6112E0164B7B6101233B610DE069
:101E6000144B7B6110233B6108E0134B7B6105E061
:101E700041F23941114804F036FC10E07B681B0B3D
:101E800003F01F03FB603B69002B02D03869FFF7AA
:101E9000FBFCFB781A46F9687869FFF75FFA183798
:101EA000BD4680BD40800C4008800C4044800C4002
:101EB00058800C4060800C4078800C409497000063
:101EC00090B585B000AF78607B6803F47813B3F504
:101ED000D01F00F0B480B3F5D01F1AD8B3F5602F2F
:101EE00000F0C880B3F5602F08D8B3F5003F45D0A7
:101EF000B3F5802F36D0002B30D0D2E0B3F5901F51
:101F000045D0B3F5B01F50D0B3F5801F00F0B680B8
:101F1000C7E0B3F5181F00F0B580B3F5181F0BD854
:101F2000B3F5F01F2ED0B3F5001F00F08380B3F59A
:101F3000E01F00F09180B4E0B3F5301F56D0B3F548
:101F4000301F03D8B3F5281F3DD0AAE0B3F5381FE2
:101F500063D0B3F5781F00F09980A2E0FEF7ECF9AA
:101F6000F860A6E0FEF7E8F9F860544B9B6803F0D0
:101F70000F03FA6822FA03F3FB609AE0FEF7B8F960
:101F8000F86096E04E48FFF7F9FBF86091E04C48A6
:101F9000FFF7F4FBF860494B9B6E1B0903F00F033E
:101FA000FA6822FA03F3FB6083E04548FFF7E6FB9B
:101FB000F860424B9B6E1B0A03F00F03FA6822FA8B
:101FC00003F3FB6075E03E48FFF7D8FBF8603B4B3E
:101FD0009B6E1B0B03F003041020FFF7FFF9034671
:101FE0002344FA6822FA03F3FB6062E03448FFF707
:101FF000C5FBF860314B9B6E1B0B03F00303FA68C3
:1020000022FA03F3FB602D4BDB6F03F00703013370
:10201000FA68B2FBF3F3FB604BE02948FFF7AEFB35
:10202000F860264B9B6E03F00303FA6822FA03F371
:10203000FB603EE02348FFF7A1FBF86039E0214850
:10204000FFF79CFBF8601D4B1B6F03F00303FA685E
:1020500022FA03F3FB602CE01A48FFF78FFBF860CD
:10206000164B1B6F1B0903F00303FA6822FA03F3F4
:10207000FB601EE0FFF7CEFAF8601AE0FFF76AFA9D
:10208000F86016E0FFF71AFCF86012E0FEF730F98E
:1020900004467868FFF744FC0346B4FBF3F3FB60A7
:1020A00007E00023FB6041F26951074804F01BFB85
:1020B00000BFFB6818461437BD4690BD00800C4039
:1020C00002001E00030020009497000080B584B039
:1020D00000AF78600123FB737B6803F00F03BB60E4
:1020E000BB68013B062B00F2938001A252F823F05B
:1020F0000D210000432100007F210000112200007B
:1021000011220000BB210000DD210000474BDB6AEB
:1021100003F47053B3F5805F09D0B3F5005F03D0CB
:10212000B3F5006F06D008E00223FB7308E0032339
:10213000FB7305E00423FB7302E00523FB7300BF80
:102140006EE03A4B9B6A03F00303022B06D0032B8D
:1021500007D0012B08D10323FB730FE00223FB738D
:102160000CE00623FB7309E0304B9B6A03F48033D9
:10217000002B02D00A23FB7300E000BF50E02B4B82
:102180009B6A03F00C03082B06D00C2B07D0042B02
:1021900008D10323FB730FE00223FB730CE006233B
:1021A000FB7309E0214B9B6A03F48013002B02D0E0
:1021B0000A23FB7300E000BF32E01C4B1B6803F0F6
:1021C0008053002B03D0B3F1805F03D028E00723B6
:1021D000FB7302E00923FB7300BF21E0134BDB6AB2
:1021E00003F46033B3F5803F08D0B3F5003F08D067
:1021F000B3F5004F08D10923FB7308E00223FB73FA
:1022000005E00323FB7302E00123FB7300BF07E03B
:102210000023FB7341F68911054804F064FA00BFFE
:10222000FB7B18461037BD4680BD00BF00800C40C8
:102230009497000080B588B000AF78600B46FB70C3
:102240000323FB610323FB7600233B617B6803F0E0
:102250000F03FB60FB68013B062B00F2438101A2E8
:1022600052F823F0812200006F2300006F2300004A
:10227000E5240000E52400003D2400007324000054
:10228000FB78023B082B52D801A252F823F000BF82
:10229000B5220000BF220000C92200000B2300006D
:1022A0002F2300002F2300002F2300002F230000E6
:1022B000232300000423FB610023FB763DE003237E
:1022C000FB610123FB7638E00223FB610223FB76EE
:1022D000FFF7BAF8034601331846FFF7F9F8FEF79F
:1022E000ABF80246844B9A4206D9844B1B68834A5A
:1022F00043F06003136020E0804B1B6823F0600311
:102300007E4A43F02003136017E00123FB6103239F
:10231000FB76FFF799F8034601331846FFF7D8F824
:102320000BE041F64A21764804F0DDF9E0E041F6A1
:102330004F21734804F0D7F9DAE0FB7E0122012136
:10234000184600F009F9FFF7D7F9FFF7DDFA6B4AF5
:10235000FB695362FDF7CCFFB860B868FFF7B8F8C7
:102360000021B868FFF7EAF9FFF7D4FAC0E0FB787C
:10237000013B092B3CD801A252F823F0A523000011
:10238000AB230000BB230000F1230000F123000079
:10239000CB230000F1230000F1230000F123000013
:1023A000E723000000237B6128E0012201210020B7
:1023B00000F0D2F802237B6120E0012201210120FC
:1023C00000F0CAF801237B6118E0FDF791FFB860C7
:1023D000B868FFF77DF8012204214A48FEF7BEFFE6
:1023E00003237B610AE000237B6101233B6105E05D
:1023F00041F6F821424804F076F979E0FB68022BB7
:102400000DD13E4B9B6A23F4803323F003037A699A
:102410001A433B691B04394913438B6268E0374B0D
:102420009B6A23F4801323F00C037A6992001A4309
:102430003B691B05314913438B6259E0FB78072B3D
:1024400002D0092B07D00DE02C4B1B682B4A23F040
:10245000805313600CE0294B1B68284A43F08053DB
:10246000136005E041F65331254804F03CF93FE0A4
:102470003EE0FB78032B13D0092B21D0022B2AD16D
:1024800001220121002000F067F81C4B40225A6213
:1024900000BF1A4BDB6A03F48033002BF9D020E035
:1024A00001220121012000F057F8144B60225A62EA
:1024B00000BF124BDB6A03F40033002BF9D010E0AD
:1024C0000E4B20225A6200BF0C4BDB6A03F4004320
:1024D000002BF9D005E041F69231094804F003F9E8
:1024E00006E005E041F68841054804F0FCF800BF2D
:1024F0002037BD4680BD00BF0048E80100800C4089
:102500009497000040800C4080B582B000AF7860A6
:102510007B68802B04D941F6D8710D4804F0E3F8AC
:102520000C4B9B6D03F00803002B0CD17B6803F070
:1025300007037B60074BDB6F23F0070205497B68CD
:102540001343CB6700E000BF0837BD4680BD00BF26
:102550009497000000800C4080B586B000AF034621
:10256000FB710B46BB7113467B71FB79042B32D890
:1025700001A252F823F000BFC5250000B7250000D6
:102580009B2500008D250000A925000001233B614B
:102590000223FB6001237B6123E004233B610823CA
:1025A000FB6003237B611CE010233B612023FB6065
:1025B00005237B6115E040233B618023FB600723FB
:1025C0007B610EE04FF480733B614FF40073FB605E
:1025D00009237B6105E042F28E010E4804F083F886
:1025E00014E0BB79002B0ED00B4A3B6913627B7958
:1025F000002B0BD000BF79690848FEF7C5FE0346E3
:10260000002BF8D002E0044AFB6813621837BD467D
:1026100080BD00BF9497000000800C402C800C40CF
:1026200080B400AF72B600BFBD4680BC704780B4B6
:1026300000AF62B600BFBD4680BC704780B483B0B7
:1026400000AFEFF310833B603B687B6072B67B6842
:1026500018460C37BD4680BC704780B483B000AFCD
:1026600078607B68002B00D162B600BF0C37BD4696
:1026700080BC704780B582B000AF03463960FB7103
:10268000FB79002B1FD0FB79012B19D0FB79022B92
:1026900013D0FB79032B0DD0FB79042B07D0FB79EA
:1026A000052B02D141F6FF730FE000230DE04FF63A
:1026B000FF730AE04FF6FF7307E04FF6FF7304E085
:1026C0004FF6FF7301E04FF6FF733A68134103F0D2
:1026D0000103002B04D14FF477710A4804F003F88A
:1026E00001223B6802FA03F30749FA7918461346B8
:1026F000DB0013449B000B441433186000BF083701
:10270000BD4680BDF89700000060004080B582B0F3
:1027100000AF03463960FB71FB79002B1FD0FB79BA
:10272000012B19D0FB79022B13D0FB79032B0DD091
:10273000FB79042B07D0FB79052B02D141F6FF73FF
:102740000FE000230DE04FF6FF730AE04FF6FF7332
:1027500007E04FF6FF7304E04FF6FF7301E04FF61A
:10276000FF733A68134103F00103002B04D140F2D8
:102770000B410A4803F0B7FF01223B6802FA03F35A
:102780000749FA7918461346DB0013449B000B44B3
:102790001033186000BF0837BD4680BDF8970000B1
:1027A0000060004080B584B000AFB9607B60034634
:1027B000FB731346BB73FB7B002B1FD0FB7B012BF2
:1027C00019D0FB7B022B13D0FB7B032B0DD0FB7BA3
:1027D000042B07D0FB7B052B02D141F6FF730FE0E2
:1027E00000230DE04FF6FF730AE04FF6FF7307E09A
:1027F0004FF6FF7304E04FF6FF7301E04FF6FF73EF
:10280000BA68134103F00103002B04D140F21B11FD
:10281000394803F068FFBB7B002B0DD07B68002B91
:1028200005D0FB7BB9681846FFF770FF04E0FB7B1F
:10283000B9681846FFF71EFFBB68072B20D82F4941
:10284000FA7B1346DB0013449B000B4404331A68E5
:10285000BB689B000F2101FA03F3DB431340B97BF4
:10286000BA68920001FA02F211462448FA7B194331
:102870001346DB0013449B0003440433196025E036
:102880001E49FA7B1346DB0013449B000B440833BC
:102890001A68BB6803F18043083B9B000F2101FAD3
:1028A00003F3DB4302EA0301BA7BBB6803F1804315
:1028B000083B9B0002FA03F31048FA7B19431346C6
:1028C000DB0013449B00034408331960BB7B002BDF
:1028D0000DD17B68002B05D0FB7BB9681846FFF74C
:1028E00015FF04E0FB7BB9681846FFF7C3FE00BF85
:1028F0001037BD4680BD00BF5C98000000600040FE
:1029000080B483B000AF0346FB71FB79002B06D087
:10291000084B1B68074A43F00103136005E0054BB1
:102920001B68044A23F00103136000BF0C37BD4647
:1029300080BC704700A0084080B487B000AFF8604A
:10294000B9607A60FB6803F10473DA00BB68134472
:102950009B007B617B697A681A6000BF1C37BD46AB
:1029600080BC704780B584B000AF78601E4B5B6858
:10297000FB607B68002B03D145211C4803F0B3FEAC
:102980000020FFF7BDFFFB6823F4830323F01F0340
:10299000FB607B685B68FA681343FB607B681B7AAB
:1029A0001A46FB681343FB607B685B7A1A46FB6838
:1029B0001343FB607B68DB68FA681343FB607B684A
:1029C0001B8A1A46FB681343FB60074AFB68536087
:1029D0007B681B78002B02D00120FFF791FF00BF1E
:1029E0001037BD4680BD00BF00A00840C098000061
:1029F00080B485B000AF78600D4B5B68FB60FB680E
:102A000023F48033FB607B68002B08D0B3F5803F54
:102A100000D005E0FB6843F48033FB6000E000BFBA
:102A2000034AFB68536000BF1437BD4680BC704743
:102A300000A0084080B483B000AF03460A46FB8084
:102A400013467B717B79002B06D0094B9A68FB8873
:102A5000074913438B6006E0054B9A68FB88DB430C
:102A6000034913408B6000BF0C37BD4680BC7047E4
:102A700000A0084080B584B000AFF860B96013468C
:102A8000FB71FB68072B04DD40F21711654803F06A
:102A90002AFEBB68272B04DD4FF48F71614803F0D9
:102AA00022FEFB68072B00F2B38001A252F823F04C
:102AB000D12A0000F92A0000212B0000492B000038
:102AC000712B0000992B0000C12B0000E92B0000A6
:102AD000BB681F2B06DCBB68FA7919465248FFF722
:102AE0002BFF9BE0BB68203BBB60BB68FA791946B3
:102AF0004E48FFF721FF91E0BB681F2B06DCBB6847
:102B0000FA7919464A48FFF717FF87E0BB68203B70
:102B1000BB60BB68FA7919464648FFF70DFF7DE0B8
:102B2000BB681F2B06DCBB68FA7919464248FFF7E1
:102B300003FF73E0BB68203BBB60BB68FA791946B2
:102B40003E48FFF7F9FE69E0BB681F2B06DCBB6857
:102B5000FA7919463A48FFF7EFFE5FE0BB68203B81
:102B6000BB60BB68FA7919463648FFF7E5FE55E0C9
:102B7000BB681F2B06DCBB68FA7919463248FFF7A1
:102B8000DBFE4BE0BB68203BBB60BB68FA791946B3
:102B90002E48FFF7D1FE41E0BB681F2B06DCBB6867
:102BA000FA7919462A48FFF7C7FE37E0BB68203B91
:102BB000BB60BB68FA7919462648FFF7BDFE2DE0D9
:102BC000BB681F2B06DCBB68FA7919462248FFF761
:102BD000B3FE23E0BB68203BBB60BB68FA791946B3
:102BE0001E48FFF7A9FE19E0BB681F2B06DCBB6877
:102BF000FA7919461A48FFF79FFE0FE0BB68203BA1
:102C0000BB60BB68FA7919461648FFF795FE05E0E8
:102C10004FF4C471034803F066FD00BF00BF1037D6
:102C2000BD4680BDC098000040A0084050A00840AC
:102C300044A0084054A0084048A0084058A00840BC
:102C40004CA008405CA00840CCA00840B4A00840BC
:102C5000D0A00840B8A00840D4A00840BCA00840BC
:102C6000D8A00840C0A0084080B586B000AFF8608A
:102C7000B9607A60FB68072B04DD40F2A1115E4861
:102C800003F031FDFB68072B00F2AC8001A252F883
:102C900023F000BFB52C0000D92C0000FD2C000053
:102CA000212D0000452D00006D2D0000952D000008
:102CB000BD2D0000514B1B6C7B61BB68DB437A6907
:102CC00013407B61BA687B6813407A6913437B6168
:102CD0004A4A7B6913648BE0484B5B6C7B61BB6841
:102CE000DB437A6913407B61BA687B6813407A6979
:102CF00013437B61414A7B69536479E03F4B9B6C92
:102D00007B61BB68DB437A6913407B61BA687B688F
:102D100013407A6913437B61384A7B69936467E0A7
:102D2000364BDB6C7B61BB68DB437A6913407B61AC
:102D3000BA687B6813407A6913437B612F4A7B69C9
:102D4000D36455E02D4BD3F8CC307B61BB68DB43BB
:102D50007A6913407B61BA687B6813407A691343D0
:102D60007B61264A7B69C2F8CC3041E0234BD3F823
:102D7000D0307B61BB68DB437A6913407B61BA6802
:102D80007B6813407A6913437B611C4A7B69C2F8F4
:102D9000D0302DE0194BD3F8D4307B61BB68DB43D6
:102DA0007A6913407B61BA687B6813407A69134380
:102DB0007B61124A7B69C2F8D43019E00F4BD3F81B
:102DC000D8307B61BB68DB437A6913407B61BA68AA
:102DD0007B6813407A6913437B61084A7B69C2F8B8
:102DE000D83005E040F2E111034803F07CFC00BF5D
:102DF00000BF1837BD4680BDC098000000A0084045
:102E000080B586B000AFF860B9607A60FB68072BC8
:102E100004DD40F2F9115C4803F065FCFB68072B08
:102E200000F2AC8001A252F823F000BF4D2E00004A
:102E3000712E0000952E0000B92E0000DD2E00003E
:102E4000052F00002D2F0000552F00004F4B1B6D4C
:102E50007B61BB68DB437A6913407B61BA687B683E
:102E600013407A6913437B61484A7B69136586E0A6
:102E7000464B5B6D7B61BB68DB437A6913407B61CA
:102E8000BA687B6813407A6913437B613F4A7B6968
:102E9000536574E03D4B9B6D7B61BB68DB437A6996
:102EA00013407B61BA687B6813407A6913437B6186
:102EB000364A7B69936562E0344BDB6D7B61BB68AE
:102EC000DB437A6913407B61BA687B6813407A6997
:102ED00013437B612D4A7B69D36550E02B4BD3F8BC
:102EE000B4307B61BB68DB437A6913407B61BA68AD
:102EF0007B6813407A6913437B61244A7B69C2F87B
:102F0000B4303CE0214BD3F8B8307B61BB68DB4385
:102F10007A6913407B61BA687B6813407A6913430E
:102F20007B611A4A7B69C2F8B83028E0174BD3F8A6
:102F3000BC307B61BB68DB437A6913407B61BA6854
:102F40007B6813407A6913437B61104A7B69C2F83E
:102F5000BC3014E00D4BD3F8C0307B61BB68DB4361
:102F60007A6913407B61BA687B6813407A691343BE
:102F70007B61064A7B69C2F8C03000E000BF00BF39
:102F80001837BD4680BD00BFC098000000A00840B3
:102F900080B483B000AF7860064B5B6823F4E01226
:102FA00004497B6813434B6000BF0C37BD4680BCAF
:102FB000704700BF00A0084080B483B000AF7860C5
:102FC00039607B681B6C03F00103002B07D100BF45
:102FD0007B685A6C3B681340002BF9D100E000BFBE
:102FE0000C37BD4680BC704780B586B000AFF86036
:102FF000B9607A607B68002B04D140F2031121484C
:1030000003F071FBBB68002B17D1FB681E4A93428B
:1030100002D11E4B7B610CE0FB681D4A934202D13A
:103020001C4B7B6105E040F22B11164803F05BFB63
:1030300025E07869FEF744FFB860BB685A017B68F9
:10304000B2FBF3F33B613B69203B3B613B69DB0037
:103050003B613B6947F6F872934204D94FF49C7187
:10306000084803F040FB3A6947F6F87313403B61A8
:103070000421F868FFF7A0FFFB683A69DA601837A7
:10308000BD4680BD249900000040084090071A000A
:103090000044084090171C0080B584B000AF7860F1
:1030A0000B46FB707B68124A934208D07B68114A3A
:1030B000934204D04FF4AE710F4803F014FBFB7839
:1030C000DB43FB60FB6803F00503FB60FB685B0010
:1030D000FB60FB78FA681343FB6002217868FFF716
:1030E0006BFF7B68FA685A6000BF1037BD4680BD31
:1030F00000400840004408402499000080B483B098
:1031000000AF78600B46FB70FB78002B08D000BF47
:103110007B685B6C002BFBD17B6801221A6402E0A8
:103120007B6800221A6400BF0C37BD4680BC704724
:1031300080B582B000AF786039607B681D4A9342E9
:1031400008D07B681C4A934204D040F2BD111B4852
:1031500003F0C9FA02217868FFF72EFF7B680A2284
:103160005A6001217868FFF7C9FF7B681B6823F06C
:103170001C033A68127B13433A68527B13433A6844
:10318000927B1A437B681A603B6859683B689B686E
:103190001A467868FFF728FF3B681B781A467B6859
:1031A0005A6000217868FFF7A9FF00BF0837BD46C5
:1031B00080BD00BF00400840004408402499000042
:1031C00080B483B000AF786000BF7B689B6803F079
:1031D0002003002BF9D07B68DB69DBB218460C3783
:1031E000BD4680BC7047000080B584B000AF7860F9
:1031F0007B68002B03D146211B4803F074FA1B4B5C
:103200005B69DBB29B00DBB203F03C03FB73174B43
:103210001B699B09DBB203F00303DAB2FB7B1343A8
:10322000FB737B68FA7B9A70104B1B69DBB203F06F
:103230003F03DAB27B685A700C4B9B691B09DBB207
:103240001B01FB73094BDB691B09DBB203F00F03A6
:10325000DAB2FB7B1343FB737B68FA7B1A7000BF07
:103260001037BD4680BD00BF3C990000D0FF0FE085
:1032700080B483B000AF78607B680D4A93420BD076
:103280007B680C4A934207D07B680B4A934203D079
:103290007B680A4A934201D1012300E0002303F036
:1032A0000103DBB218460C37BD4680BC704700BF37
:1032B000000001400004014000080140000C0140F2
:1032C00080B584B000AF786039607868FFF7D0FFD0
:1032D0000346002B03D19F21374803F004FA002353
:1032E000FB603B681B7883F00103DBB2002B02D04C
:1032F0007B6802225A607B6800225A623B689B7896
:103300001A063B68DB781B041A433B689B799B02D7
:103310001A433B68DB791B0213433A68127A134362
:103320003A685278002A01D0402200E0002213437C
:103330003A68527A002A01D0802200E0002213432A
:103340003A68927A002A01D0202200E0002213433A
:103350003A68D27A002A01D0102200E000221343FA
:103360003A68127B002A01D0082200E000221343B1
:10337000FB603B681B79002B02D04FF4005200E049
:1033800000223B685B79002B02D04FF0805300E0B5
:1033900000231343FA681343FB607B68FA681A60E2
:1033A0003B681B78002B02D07B6801225A6000BF6B
:1033B0001037BD4680BD00BF0C9A000080B584B0B8
:1033C00000AFF860B9607A60F868FFF751FF034614
:1033D000002B03D1EB21284803F085F9BB68022BB1
:1033E00003D9EC21244803F07EF97B681B789A0608
:1033F0007B685B781B061A437B689B781B041A4327
:103400007B68DB781B031A437B681B799B021A439A
:103410007B685B791B0213437A68927913437A685D
:10342000D279002A02D04FF4001200E000221343A8
:103430007A68127A002A02D04FF4801200E000224B
:1034400013437A68527A002A01D0102200E0002249
:1034500013437A68927A002A01D0042200E0002205
:103460001A43F968BB6803331B010B441A6000BFA1
:103470001037BD4680BD00BF0C9A000080B483B0F9
:1034800000AF0346FB7197F90730002B0BDBFB798C
:1034900003F01F02064997F907305B09012000FA83
:1034A00002F241F8232000BF0C37BD4680BC7047B4
:1034B00000E100E080B483B000AF0346FB7197F9F0
:1034C0000730002B0CDBFB7903F01F02074997F94B
:1034D00007305B09012000FA02F2603341F8232033
:1034E00000BF0C37BD4680BC704700BF00E100E064
:1034F00080B400AF074B03F5703308331B680549F0
:1035000023F0010201F5703308331A6000BFBD4695
:1035100080BC704700400C4080B400AF074B03F5FF
:10352000703308331B68054943F0010201F570331D
:1035300008331A6000BFBD4680BC704700400C4095
:1035400080B400AF064B5B6803F00103002B14BF8F
:1035500001230023DBB21846BD4680BC704700BF84
:1035600000400C4080B400AF084B03F570331833B3
:1035700000221A60054B03F5703318334FF4C05224
:103580001A6000BFBD4680BC704700BF00400C40C1
:1035900080B584B000AF78600023FB7307F10C03A3
:1035A0001946786800F010F80346002B07D1BB8954
:1035B00003F00103002B14BF01230023FB73FB7BEB
:1035C00018461037BD4680BD80B487B000AF786024
:1035D0003960FF23FB757B681B78002B1DD07B684F
:1035E0009B785A011F4B13441B683B613B6903F4F2
:1035F0004023FB60FB68B3F5402F03D0FB68B3F5B5
:10360000002F27D13B695B0D9BB203F001039AB2F7
:103610003B681A800023FB751CE07B689B785A018D
:10362000114B13441B683B613B6903F44023FB606F
:10363000FB68B3F5402F03D0FB68B3F5002F09D129
:103640003B695B0D9BB203F001039AB23B681A80A1
:103650000023FB7597F9173018461C37BD4680BC10
:10366000704700BF00091040000B104080B483B0C9
:1036700000AF7860054B7A6803F5723303F58A73FF
:103680001A6000BF0C37BD4680BC704700400C403C
:1036900080B483B000AF7860054B7A6803F572336D
:1036A00003F545731A6000BF0C37BD4680BC7047F8
:1036B00000400C4080B483B000AF7860396010499E
:1036C0007B6843F4002201F5723303F588731A60B6
:1036D0000B4B03F5723303F580731B6823F03C42F8
:1036E0003B681343064943F0044201F5723303F586
:1036F00080731A6000BF0C37BD4680BC704700BFA6
:1037000000400C4080B483B000AF7860396010494D
:103710007B6843F4002201F5723303F544731A60A9
:103720000B4B03F5723303F540731B6823F03C42E7
:103730003B681343064943F0044201F5723303F535
:1037400040731A6000BF0C37BD4680BC704700BF95
:1037500000400C4080B487B000AF78600023FB606D
:103760007B681B69002B04D101237B6100233B6133
:103770000DE07B681B697A6892891344013B7A6883
:103780009289B3FBF2F37B617B681B693B617B68C9
:103790009B785A01184B13441B6903F000423B69A4
:1037A00042EA03017B69DA047B689B785801124B7B
:1037B00003440A431A617B6899687B689B785A01C5
:1037C0000D4B13440A465A617B689B785A010A4B99
:1037D00013441B6823F03C42FB681A437B689B78C8
:1037E0005901054B0B4442F004421A6000BF1C37DC
:1037F000BD4680BC704700BF0009104080B487B050
:1038000000AF78600023FB607B681B69002B05D14B
:1038100001237B617B689B893B6111E07B681B69AD
:103820007A6892891344013B7A689289B3FBF2F378
:103830007B617B689B891A467B6902FB03F33B61D2
:103840007B689B785A011A4B13441B6903F0604252
:103850003B6942EA03017B69DA047B689B78580183
:10386000134B03440A431A617B683A699A617B6887
:1038700099687B689B785A010D4B13440A465A613C
:103880007B689B785A010A4B13441B6823F03C4227
:10389000FB681A437B689B785901054B0B4442F047
:1038A00004421A6000BF1C37BD4680BC704700BF91
:1038B000000B104080B582B000AF78607B689B78C9
:1038C000002B03D1786800F009F802E0786800F076
:1038D00043F800BF0837BD4680BD000080B584B006
:1038E00000AF78607B681B78002B1FD07B681B695A
:1038F000002B02D17B6801225A707B689B681846B6
:10390000FFF7B4FE7B681B69FB607B689B897B814A
:103910007A89FB689A4228BF1A460E4B1B68D3F877
:10392000A43019461046FFF7C5FE0FE07B689B6880
:103930001846FFF7ADFE7B689B891A46054B1B684E
:10394000D3F8A43019461046FFF7DCFE00BF10374D
:10395000BD4680BD0C00002080B582B000AF78600D
:103960007B681B78002B03D07868FFF7F3FE02E03A
:103970007868FFF743FF00BF0837BD4680BD0000F1
:1039800080B485B000AF0346FB710023BB6097F99C
:103990000730002B09DA184B1A68FB7903F00F0384
:1039A000134493F88430FB6008E0134B1A68FB79EA
:1039B00003F00F03134493F89430FB60FB68002B73
:1039C0000BD00D4B1968FA6813469B001344DB00BB
:1039D00030330B440433BB6008E0FB7903F00F0382
:1039E000002B03D1044B1B683433BB60BB68184603
:1039F0001437BD4680BC70470C00002080B400AF77
:103A0000034B1B6893F820301846BD4680BC7047B6
:103A10000C00002080B58EB000AF7860002201213C
:103A20000120FEF799FD1120FEF750FB0346042B01
:103A300003D004211120FEF7FDFB03F033FC894B7A
:103A40001B68A8220021184605F0A7F8854B1A68C4
:103A5000844B1B6804321A60824B1B687A681268B8
:103A60005A62804B1B687A6852689A627D4B1B6869
:103A70007A689268DA627B4B1B687A68127B9A7765
:103A8000784B1B68072283F82020764B1B680022A6
:103A900083F82120734B1B68002283F82220714B8E
:103AA0001B687A6852691A636E4B1B6800225A774A
:103AB0006C4B1B683433BB61BB6900221A70BB6955
:103AC00000229A60BB6900229A70BB690122DA81E8
:103AD000BB690022DA70BB6900221A71BB6900223F
:103AE0005A717B681B68DB799AB2BB699A81BB69A2
:103AF0009B89202B05D15B4B1B680122C3F8A420B6
:103B00000CE0BB699B89402B05D1564B1B680022FA
:103B1000C3F8A42002E06FF00303AEE1BB6900220A
:103B20001A61BB6900225A61BB69002283F8202018
:103B3000BB6900225A62BB699B899B089BB21A46EB
:103B4000BB69DA61BB69DB697A681269127802FBCA
:103B500003F37B62BB69DB6901337A68126912780F
:103B600002FB03F3BB6200237B6300233B62002361
:103B7000FB613C4B1B689B6AFB623A4B1B689B6A70
:103B80005B889BB21A46FB6A13447B61012387F86A
:103B90003330FCE0FB6A1B78002B07D14FF4D17166
:103BA000314802F0A0FD6FF0030366E1FB6A0133C8
:103BB0001B78052B40F0C5807B6B01337B63FB6A70
:103BC000BB60284B19687A6B13469B001344DB00DB
:103BD00030330B440433BB61BB689B785BB2DBB210
:103BE000DB09DAB2BB691A70BB6900229A60BB6854
:103BF0009A78BB69DA70BB69DB7803F00F03DAB23D
:103C0000BB699A70BB699B781A46012393409AB2AC
:103C1000BB69DA81BB68DB7803F00303DAB2BB6906
:103C20001A71BB689B889AB2BB699A81BB690022F2
:103C30001A61BB6900225A61BB69002283F8202007
:103C4000BB6900225A627B681A697B6B13441B783C
:103C5000002B0BD14FF4E271034802F044FD6FF0EA
:103C600003030AE10C000020D49A0000BB691B7812
:103C7000002B36D03B6A01333B6297F833305A1C35
:103C800087F83320BA695371BB699B890333002BD2
:103C900000DA03339B1019467B681A697B6B134467
:103CA0001B7803FB01F31A46BB69DA61754B1B688D
:103CB000BA69927811467A6BD2B20B4483F88420A9
:103CC000BB69DB697A6A13447B62BB699B78062B0C
:103CD00057D940F2D1116C4802F005FD6FF0030393
:103CE000CBE0FB690133FB61BB699B890333002B8C
:103CF00000DA03339B1001337A6811697A6B0A4446
:103D0000127802FB03F31A46BB69DA615D4B1B684C
:103D1000BA69927811467A6BD2B20B4483F8942038
:103D2000BB69DB69BA6A1344BB62BB699B78062B2B
:103D300027D94FF4EE71544802F0D5FC6FF003031D
:103D40009BE0FB6A01331B78042B1AD1FB6AFB60F2
:103D5000FB68DB78002B14D14A4B1B68DA7FFB68C9
:103D60009B789A4207D04FF4F371474802F0BBFCAE
:103D70006FF0030381E0434B1B68DA7F0132D2B25C
:103D8000DA77FB6A1B781A46FB6A1344FB62FA6A0D
:103D90007B699A42FFF4FEAEBB6A1933BB62394BB2
:103DA0001B689B6A1A79374B1B68DB7F9A4207D0E6
:103DB0004FF4FC71344802F096FC6FF003035CE0B2
:103DC0007B6B012B07D04FF4FF712F4802F08BFC67
:103DD0006FF0030351E03B6A062B07D94FF40171E2
:103DE000294802F080FC6FF0030346E0FB69062BD4
:103DF00007D940F20A21244802F075FC6FF0030352
:103E00003BE0FEF71BFC3861204B1B6C1F4A43F064
:103E10000C03136409211E48FEF70CFAFFF768FB38
:103E2000796AB86A02F0ACFC0346002B0FD1FFF7A9
:103E300099FBFFF771FB0520FFF73CFB0520FFF71F
:103E40001DFBFFF77DFB0346002B0FD00AE038690E
:103E5000FEF703FC40F23F210B4802F044FC6FF0F8
:103E600003030AE0022000F0ADF802E0002000F0B9
:103E7000A9F83869FEF7F1FB002318463837BD462C
:103E800080BD00BF0C000020D49A000000800C40D0
:103E90000723260080B586B000AFF860B9607A606D
:103EA0003B60FB68DBB21846FFF76AFD78617B690F
:103EB000002B07D140F27321414802F014FC6FF04F
:103EC000030378E07B68B3F5002F08DA7B699B89F0
:103ED0001A467B6893FBF2F3B3F5806F07DB40F281
:103EE0007A21374802F0FFFB6FF0030363E0BB6801
:103EF00003F00303002B07D04FF42071304802F089
:103F0000F2FB6FF0030356E0FEF798FB3861786927
:103F1000FFF73EFB0346002B05D03869FEF79DFBFB
:103F20006FF0040347E07B6993F82030002B05D045
:103F30003869FEF792FB6FF001033CE07B699B78E8
:103F4000002B0AD0FFF75AFD0346052B05D0386930
:103F5000FEF783FB6FF008032DE07B69BA689A6077
:103F60007A687B691A617B6900225A617B699B7858
:103F7000002B03D17B6900221A700EE07B691B784D
:103F8000002B0AD03869FEF768FB4FF428710C4803
:103F900002F0A9FB6FF003030DE07B69022283F8B6
:103FA00020207B693A685A627869FFF783FC386998
:103FB000FEF753FB002318461837BD4680BD00BFEF
:103FC000D49A000080B584B000AF0346FB71184B53
:103FD0001B6893F82030FB73FB79062B04D1144B3C
:103FE0001B68FA7B83F82120114B1A68104B1B6861
:103FF00092F8202083F822200D4B1B68FA7983F871
:1040000020200B4B1B681B6B5B68002B0BD0FA7BD3
:10401000FB799A4207D0064B1B681B6B5B68F979EA
:10402000FA7B1046984700BF1037BD4680BD00BFE1
:104030000C00002080B586B000AFF860B9607A60EF
:104040003B60FB68DBB21846FFF79AFC78617B693E
:10405000002B07D140F27D31424802F044FB6FF063
:1040600003037BE07B68B3F5002F08DA7B699B894B
:104070001A467B6893FBF2F3B3F5806F07DB4FF4CE
:104080006171384802F02FFB6FF0030366E0BB68F4
:1040900003F00303002B07D040F28A31314802F0CD
:1040A00022FB6FF0030359E0FEF7C8FA3861786924
:1040B000FFF76EFA0346002B05D03869FEF7CDFAFC
:1040C0006FF004034AE07B6993F82030002B05D0A1
:1040D0003869FEF7C2FA6FF001033FE07B699B7815
:1040E000002B0AD0FFF78AFC0346052B05D0386960
:1040F000FEF7B3FA6FF0080330E07B69BA689A60A4
:104100007A687B691A617B6900225A617B699B78B6
:10411000002B03D17B6901221A7011E07B691B78A7
:1041200083F00103DBB2002B0AD03869FEF795FA61
:1041300040F2AA310B4802F0D6FA6FF003030DE00B
:104140007B69012283F820207B693A685A6278698A
:10415000FFF7B0FB3869FEF780FA002318461837DE
:10416000BD4680BDD49A000080B485B000AF7860B1
:104170000B46FB70FB78002B03D07B68002283F892
:1041800020207B681B78002B30D07B68DB89FB60AC
:104190007B689B785A01344B13441B6823F070539F
:1041A000BB60BB6803F40043002B13D1BA682F4BEC
:1041B00013407A68928913437A6812799204134300
:1041C0007A6852799205134343F0C05343F4004395
:1041D000BB6003E0BB6843F08053BB607B689B78A7
:1041E0005A01214B1344BA681A602CE07B68DB89C2
:1041F0001B04FB607B689B785A011D4B13441B68B2
:1042000023F07053BB60BB6803F40043002B0FD155
:10421000BA68184B13407A68928913437A68127906
:104220009204134343F0C05343F40043BB6003E0E4
:10423000BB6843F08053BB607B689B785A010C4B92
:104240001344BA681A600C4B03F572331C331A68B6
:104250000949FB681A4301F572331C331A6000BF29
:104260001437BD4680BC70470009104000F813FCAD
:10427000000B104000F8D3FF00400C4080B485B024
:1042800000AF78607B681B78002B0AD07B689B7836
:104290005A01124B134400221A607B68DB89FB60D1
:1042A0000AE07B689B785A010D4B134400221A6088
:1042B0007B68DB891B04FB600A4B03F572331C33FC
:1042C0001A68FB68DB4307491A4001F572331C3357
:1042D0001A6000BF1437BD4680BC7047000910400B
:1042E000000B104000400C4080B487B000AF7860F5
:1042F0003960FF23FB757B681B78002B1DD07B6822
:104300009B785A011F4B13441B683B613B6903F4C4
:104310004023FB60FB68B3F5402F03D0FB68B3F587
:10432000002F27D13B695B0D9BB203F001039AB2CA
:104330003B681A800023FB751CE07B689B785A0160
:10434000114B13441B683B613B6903F44023FB6042
:10435000FB68B3F5402F03D0FB68B3F5002F09D1FC
:104360003B695B0D9BB203F001039AB23B681A8074
:104370000023FB7597F9173018461C37BD4680BCE3
:10438000704700BF00091040000B104080B483B09C
:1043900000AF0346FB71094B03F572331B6823F42E
:1043A000FE63FA79120105491A4301F572331A6066
:1043B00000BF0C37BD4680BC704700BF00400C40BA
:1043C00080B487B000AF7860FF23FB747B681B78F4
:1043D000002B23D07B689B785A01224B13441B6827
:1043E00023F070537B617B6903F44023FB60FB681F
:1043F000B3F5802F2ED07B69002B03DA7B6943F065
:1044000080437B617B689B785A01164B13447A6921
:1044100042F400121A600023FB741BE07B689B7857
:104420005A01114B13441B6823F070537B617B6965
:1044300003F44023FB60FB68B3F5802F0AD07B6850
:104440009B785A01084B13447A6942F400121A60AF
:104450000023FB7497F9133018461C37BD4680BC07
:10446000704700BF00091040000B104080B487B0B7
:1044700000AF7860FF23FB757B681B78002B26D08C
:104480007B689B785A01284B13441B6823F07053B8
:104490003B613B6903F44023FB60FB68B3F5402FAD
:1044A00003D0FB68B3F5002F37D13B6943F080534D
:1044B0003B613B6923F400133B617B689B785A01A5
:1044C000194B13443A691A600023FB7525E07B6899
:1044D0009B785A01154B13441B6823F070533B61C2
:1044E0003B6903F44023FB60FB68B3F5402F03D026
:1044F000FB68B3F5002F10D13B6943F080533B615B
:104500003B6923F400133B617B689B785A01074B9E
:1045100013443A691A600023FB7597F9173018465F
:104520001C37BD4680BC704700091040000B10408E
:1045300080B584B000AF0346FB710123FB6011E03E
:104540000C4B1968FA6813469B001344DB003033A8
:104550000B440433FA7911461846FFF705FEFB6851
:104560000133FB60FB68012BEADD00BF1037BD465D
:1045700080BD00BF0C00002080B584B000AF0346B2
:10458000FB710123FB6015E0104B1968FA681346B4
:104590009B001344DB0030330B440433BB60BB6827
:1045A00093F82030002B02D1B868FFF767FEFB6854
:1045B0000133FB60FB68012BE6DD97F907301846F5
:1045C00002F04AFC00BF1037BD4680BD0C00002041
:1045D00080B485B000AF0346FB710023BB6097F940
:1045E0000730002B09DA184B1A68FB7903F00F0328
:1045F000134493F88430FB6008E0134B1A68FB798E
:1046000003F00F03134493F89430FB60FB68002B16
:104610000BD00D4B1968FA6813469B001344DB005E
:1046200030330B440433BB6008E0FB7903F00F0325
:10463000002B03D1044B1B683433BB60BB681846A6
:104640001437BD4680BC70470C00002080B584B094
:1046500000AF78607B681B68BB607B681B6B9B68E6
:10466000002B0BD07B681B6B9B68B8689847F86081
:10467000FB6813F1030F01D0FB685AE04FF0FF33E2
:10468000FB60BB681B7803F06003DBB2002B4CD1EE
:10469000BB685B780B2B4AD801A252F823F000BF0D
:1046A000D1460000DB4600002F470000E546000031
:1046B0002F470000EF460000F94600002F4700009A
:1046C000034700000D470000174700002147000086
:1046D000786800F0ABF9F8602AE0786800F02EF80E
:1046E000F86025E0786800F044FBF86020E0786826
:1046F00000F06AFAF8601BE0786800F0D3F8F86020
:1047000016E0786800F07CF8F86011E0786800F056
:10471000B0FAF8600CE0786800F042F9F86007E061
:10472000786800F0A1FBF86002E000BF00E000BF85
:10473000FB6818461037BD4680BD00BF80B586B007
:1047400000AF78604FF0FF337B617B681B683B6193
:104750003B69DB889BB2002B02D04FF0FF334BE06C
:104760003B691B78C3F30403DBB2002B02D0022B9E
:1047700021D040E03B699B889BB2002B3AD13B693A
:104780005B889BB2012B35D17B6893F82030042BDA
:1047900004D07B6893F82030052B2BD17B689B6A73
:1047A000DB7903F02003002B24D07B6800225A77AA
:1047B00000237B611EE03B699B889BB2DBB21846FD
:1047C000FFF706FFF860FB68002B14D0FB689B78AE
:1047D000002B10D03B695B889BB2002B0BD17B6810
:1047E00093F82030052B06D1F868FFF73FFE03460B
:1047F0007B6100E000BF7B6918461837BD4680BD6D
:1048000080B586B000AF78604FF0FF337B617B6886
:104810001B683B61224BFB603B699B889BB2002B72
:1048200017D13B69DB889BB2012B12D13B695B88B6
:104830009BB2002B0DD13B691B7823F07F03DBB2C9
:10484000002B06D03B691B7803F01F03DBB2002B63
:1048500002D04FF0FF331EE07B6893F82030042B2A
:104860000AD1FB6800221A7000230122F968002097
:10487000FFF7E0FB78610DE07B6893F82030052BB3
:1048800008D17B6803F11C01002301220020FFF7FF
:10489000D1FB78617B6918461837BD4680BD00BFE3
:1048A0007001002080B58AB000AF78600023FB84DF
:1048B00000233B624FF0FF33FB617B681B68BB61E9
:1048C000BB691B7803F01F03DBB2002B06D1BB6969
:1048D0001B7823F07F03DBB2002B02D14FF0FF33B4
:1048E00059E0BB695B889BB2DBB27B61BB695B88CB
:1048F0009BB21B0A9BB2022B0ED0032B1AD0012BAA
:1049000030D17B69002B28D17B685B6A3B627B6876
:104910005B6A1B78FB8425E07B69002B1FD17B68D9
:104920009B6A3B627B689B6A9A78DB781B02134325
:10493000FB8417E07B689B7F1A467B69934210DA01
:104940007B68DA6A7B699B0013441B683B613B69A7
:104950003B623B691B78FB8403E000BF02E000BFC1
:1049600000E000BFFB8C002B14D0FB8CFB81BB69EB
:104970009A79DB791B021343BB81FA89BB899A427E
:1049800001D2FA8900E0BA890023396A0020FFF7D2
:1049900051FBF861FB6918462837BD4680BD000011
:1049A00080B586B000AF78604FF0FF337B617B68E5
:1049B0001B683B611C4BFB603B699B889AB27B6820
:1049C000DB7F9BB29A4217D23B69DB889BB2012BFB
:1049D00012D13B695B889BB2002B0DD13B691B78E0
:1049E00023F07F03DBB2002B06D03B691B7803F07A
:1049F0001F03DBB2012B02D04FF0FF330FE07B68C7
:104A000093F82030052B09D1FB6800221A7000238F
:104A10000122F9680020FFF70DFB78617B691846D9
:104A20001837BD4680BD00BF7001002080B586B03C
:104A300000AF78604FF0FF337B617B681B683B61A0
:104A4000604BFB603B695B889BB2002B0BD13B69E1
:104A5000DB889BB2022B06D13B691B7823F07F03D6
:104A6000DBB2002B02D14FF0FF33A6E03B691B788D
:104A7000C3F30403DBB2012B4DD0022B6DD0002B0E
:104A800040F09A803B699B889BB2002B40F08F805E
:104A90007B6893F82030042B05D07B6893F8203096
:104AA000052B40F08480FB6800221A807B685B7FC6
:104AB000002B06D0FB681B8843F002039AB2FB6808
:104AC0001A807B681B6BDB68002B0ED07B681B6B2E
:104AD000DB6898470346002B15D0FB681B8843F022
:104AE00001039AB2FB681A800DE07B689B6ADB7950
:104AF00003F04003002B06D0FB681B8843F0010342
:104B00009AB2FB681A8000230222F9680020FFF79E
:104B100091FA78614BE07B6893F82030042B04D144
:104B20003B699B889BB2002B0CD07B6893F82030AC
:104B3000052B3ED13B699B889AB27B68DB7F9BB299
:104B40009A4236D2FB6800221A8000230222F968BA
:104B50000020FFF76FFA78612BE03B699B889BB2DE
:104B6000DBB21846FFF734FDB860BB68002B22D0DB
:104B70007B6893F82030042B03D1BB689B78002B13
:104B800004D07B6893F82030052B14D1F968B868FD
:104B9000FFF7AAFB03467B617B69002B0BD1002347
:104BA0000222F9680020FFF745FA786103E000BFB0
:104BB00002E000BF00E000BF7B6918461837BD4621
:104BC00080BD00BF7001002080B584B000AF786068
:104BD0004FF0FF33FB607B681B68BB60BB689B8842
:104BE0009BB2002B10D1BB68DB889BB2002B0BD192
:104BF000BB685B889BB27F2B06D8BB681B7803F031
:104C00001F03DBB2002B02D04FF0FF332DE07B6897
:104C100093F82030032B11D1BB685B889BB2002B2B
:104C200002D00420FFF7CEF9BB685B889BB2DBB2F1
:104C30001846FFF7ABFB0023FB6015E07B6893F899
:104C40002030042B10D1BB685B889BB2002B02D1B3
:104C50000320FFF7B7F9BB685B889BB2DBB218464D
:104C6000FFF794FB0023FB60FB6818461037BD4636
:104C700080BD80B584B000AF78604FF0FF33FB603B
:104C80007B681B68BB60BB689B889BB2002B12D102
:104C9000BB68DB889BB2002B0DD1BB685B889BB2E5
:104CA0001B0A9BB2002B06D1BB681B7803F01F03C5
:104CB000DBB2002B02D04FF0FF3356E07B6893F855
:104CC0002030042B25D1BB685B889BB2002B08D019
:104CD000BB685B889AB27B689B6A5B799BB29A429D
:104CE00042D1BB685B889BB2DAB27B681A77BB683B
:104CF0005B889AB27B689B6A5B799BB29A4205D1CA
:104D00000120FFF715FC0520FFF75CF90023FB608D
:104D10002AE07B6893F82030052B25D1BB685B889F
:104D20009BB2002B08D0BB685B889AB27B689B6AF9
:104D30005B799BB29A4217D1BB685B889BB2DAB2AF
:104D40007B681A77BB685B889BB2002B07D1042075
:104D5000FFF738F96FF00800FFF70EFC02E00020C3
:104D6000FFF7E6FB0023FB60FB6818461037BD46E3
:104D700080BD80B586B000AF78604FF0FF337B61B7
:104D80007B681B683B613B69DB889BB2002B02D0D0
:104D90004FF0FF3364E03B691B78C3F30403DBB2DD
:104DA000002B02D0022B1CD059E03B699B889BB2A0
:104DB000002B53D13B695B889BB2012B4ED17B68A2
:104DC00093F82030052B49D17B689B6ADB7903F08F
:104DD0002003002B42D07B6801225A7700237B619D
:104DE0003CE03B699B889BB2DBB21846FFF7F0FBC7
:104DF000F860FB68002B32D0FB689B78002B2ED02C
:104E00003B695B889BB2002B29D17B6893F82030EB
:104E1000052B24D1F868FFF7D3FA03467B61FB68C2
:104E2000002283F820207B69002B18D1FB6893F8BF
:104E30002030002B13D0FB685B6A002B0FD0FB687F
:104E40005B6ABB60FB6800225A62FB685969FB68B9
:104E50001A69BB686FF00400984700E000BF7B69E7
:104E600018461837BD4680BD80B584B000AF786065
:104E70004FF0FF33FB607B681B68BB60BB689B889F
:104E80009AB27B68DB7F9BB29A421AD2BB68DB88FE
:104E90009BB2002B15D1BB685B889BB2002B10D155
:104EA0007B6893F82030052B0BD1BB681B7803F08F
:104EB0001F03DBB2012B04D10020FFF739FB0023D5
:104EC00000E0FB6818461037BD4680BD80B483B053
:104ED00000AF78607B681A1D0F4B03F5723303F542
:104EE00045731A600C4B03F5723303F540731B686E
:104EF00023F03C427B68D3F8A4301343064943F0C7
:104F0000004201F5723303F540731A6000BF0C379D
:104F1000BD4680BC704700BF00400C4080B487B0E5
:104F200000AF7860FF23FB747B681B78002B23D0D5
:104F30007B689B785A01224B13441B6823F0705303
:104F40007B617B6903F44023FB60FB68B3F5802F32
:104F50002ED07B69002B03DA7B6943F080437B61B1
:104F60007B689B785A01164B13447A6942F400120D
:104F70001A600023FB741BE07B689B785A01114B7D
:104F800013441B6823F070537B617B6903F4402357
:104F9000FB60FB68B3F5802F0AD07B689B785A01D1
:104FA000084B13447A6942F400121A600023FB7420
:104FB00097F9133018461C37BD4680BC704700BFB8
:104FC00000091040000B104080B483B000AF78603F
:104FD000396010497B6843F4002201F5723303F510
:104FE00088731A600B4B03F5723303F580731B68EB
:104FF00023F03C423B681343064943F0044201F569
:10500000723303F580731A6000BF0C37BD4680BC55
:10501000704700BF00400C4080B483B000AF7860A0
:10502000396010497B6843F4002201F5723303F5BF
:1050300044731A600B4B03F5723303F540731B681E
:1050400023F03C423B681343064943F0044201F518
:10505000723303F540731A6000BF0C37BD4680BC45
:10506000704700BF00400C4080B485B000AF0346DD
:10507000FB710023BB6097F90730002B09DA184B4E
:105080001A68FB7903F00F03134493F88430FB6034
:1050900008E0134B1A68FB7903F00F03134493F8ED
:1050A0009430FB60FB68002B0BD00D4B1968FA683D
:1050B00013469B001344DB0030330B440433BB60C6
:1050C00008E0FB7903F00F03002B03D1044B1B68AE
:1050D0003433BB60BB6818461437BD4680BC70478C
:1050E0000C00002080B584B000AF78607B681B782E
:1050F000002B13D07B681B69FB607B689B897B81DD
:105100007A89FB689A4228BF1A460C4B1B68D3F871
:10511000A43019461046FFF757FF0AE07B689B89C9
:105120001A46064B1B68D3F8A43019461046FFF701
:1051300073FF00BF1037BD4680BD00BF0C000020CC
:1051400080B584B000AF78607B683433BB60BB68E7
:1051500093F82030042B00F2138101A252F823F0BF
:1051600075510000DD520000595200004D530000FF
:105170004D530000BB6800221A61BB6800225A70C0
:10518000844B00221A60844B00221A707868FFF763
:105190005DFAF860FB68B3F1FF3F0FD1BB680122F5
:1051A0001A70B868FFF7BAFEBB6800221A70B868B8
:1051B000FFF7B4FE7868FFF789FEE6E0BB6893F876
:1051C0002030022B04D0BB6893F82030012B03D190
:1051D000BB685B6A6F4A1360BB6893F82030022B90
:1051E00000F0D380BB681B69002B18D0BB681B691B
:1051F0007A681268D28892B2934280F0C680BB6807
:105200001B69BA689289B3FBF2F102FB01F29B1AA7
:10521000002B40F0BA80BB6801225A70B5E0786874
:10522000FFF754FE5D4B00221A60BB685B78002BD1
:105230000AD10023002200210020FEF7FBFEBB68FC
:10524000032283F82020A0E0BB68002283F82020FE
:10525000BB6800221A7098E0BB681B69002B03D062
:10526000B868FFF73FFF91E00023FB60494B1B68E4
:10527000002B0AD0474B1B68BA68516900220020F6
:105280009847F860434B00221A60FB68002B13D04C
:10529000BB6801221A70B868FFF740FEBB680022A5
:1052A0001A70B868FFF73AFE7868FFF70FFEBB6820
:1052B000002283F8202069E07868FFF707FEBB68CA
:1052C000002283F820200023002200210020FEF786
:1052D000B1FEBB68032283F8202057E0BB681B693E
:1052E000002B03D0B868FFF7FDFE4FE0BB685B788A
:1052F000012B11D1BB685B69284A1360BB6800228F
:1053000083F820200023002200210020FEF792FED7
:10531000BB6802225A7039E0BB685B78002B03D16E
:10532000BB685B691D4A1360BB68002283F82020BC
:105330000023002200210020FEF7ACFD164B0122C5
:105340001A70BB68042283F820201FE0124B1B78E0
:10535000002B02D07868FFF7B9FD0E4B1B68002BBD
:1053600006D00C4B1B680D4A11680022002098479C
:10537000BB68002283F82020BB6800221A7005E079
:10538000A021074801F0AFF900E000BF00BF1037CF
:10539000BD4680BD74010020780100207C01002002
:1053A000E89A000080B584B000AF0346FB71FB793A
:1053B0001846FFF759FEF860FB6893F82030012B80
:1053C00004D0FB6893F82030022B15D1FB68002233
:1053D00083F82020FB685B6A002B12D0FB685B6AB5
:1053E000BB60FB6800225A62FB685969FB681A6956
:1053F000BB680020984704E040F23311034801F0F5
:1054000072F900BF1037BD4680BD00BFE89A0000AA
:1054100080B483B000AF0346FB71FB799B011A4651
:105420000A4B42F0200203F5703310331A6000BFBC
:10543000064B03F5703310331B6803F02003002B79
:10544000F6D100BF0C37BD4680BC704700400C4011
:1054500080B483B000AF0A4B03F5703314331B687C
:105460007B60074B03F5703318331B687A68134071
:105470007B607B6818460C37BD4680BC704700BF18
:1054800000400C4080B485B000AF7860114B03F54C
:105490007033183300221A600E4B03F57033143347
:1054A0004FF0FF321A600C4BFB607B681B6B1B6973
:1054B000002B03D0FB6843F00803FB60054B03F5AA
:1054C00070331833FA681A6000BF1437BD4680BCC9
:1054D000704700BF00400C4000380C8080B400AF23
:1054E000084B03F57033183300221A60054B03F59F
:1054F000703318334FF4C0521A6000BFBD4680BCF1
:10550000704700BF00400C4080B483B000AF7860AB
:10551000124B03F5723304331B6823F4F0630F4915
:1055200043F4807201F5723304331A600B4B03F5B8
:10553000723303F540731B6823F03C427B681343CE
:10554000064943F0044201F5723303F540731A60D3
:1055500000BF0C37BD4680BC704700BF00400C4008
:1055600080B483B000AF0A4B03F5723318331B6865
:105570007B60074B03F572331C331B687A6813405A
:105580007B607B689BB218460C37BD4680BC704779
:1055900000400C4080B483B000AF0A4B03F5723377
:1055A00018331B687B60074B03F572331C331B6891
:1055B0007A6813407B607B681B0C18460C37BD462D
:1055C00080BC704700400C4080B485B000AF78606C
:1055D0000A4B03F5723310331B68FB607B689B78C2
:1055E0005A01074B13449B68BB60BA68FB681340C1
:1055F00018461437BD4680BC704700BF00400C40C1
:105600000009104080B485B000AF78607B689B785B
:105610005A01094B13449B68FB60084B03F5723336
:1056200014331B68FA681340FB60FB681846143794
:10563000BD4680BC704700BF000B104000400C40CE
:1056400080B483B000AF78607B68002283F8342098
:10565000164B03F5723303F544734FF0C0421A60E2
:105660007B681A1D7B681A607B681A680F4B03F50C
:10567000723303F545731A600C4B03F5723303F56F
:1056800040731B6823F03C427B68D3F8A43013437B
:10569000064943F0044201F5723303F540731A6082
:1056A00000BF0C37BD4680BC704700BF00400C40B7
:1056B00080B485B000AF0346FB710023BB6097F94F
:1056C0000730002B09DA184B1A68FB7903F00F0337
:1056D000134493F88430FB6008E0134B1A68FB799D
:1056E00003F00F03134493F89430FB60FB68002B26
:1056F0000BD00D4B1968FA6813469B001344DB006E
:1057000030330B440433BB6008E0FB7903F00F0334
:10571000002B03D1044B1B683433BB60BB681846B5
:105720001437BD4680BC70470C00002080B584B0A3
:1057300000AF0023FB72FCF781FF7860654B1B789C
:10574000DBB2002B15D0644BDB6A03F00403002BA3
:1057500005D1624B1B68604A03F0140313625E4B71
:1057600020225A6200BF5C4BDB6A03F40043002B2B
:10577000F9D05B4B5B69002B45D0594B9B6803F01C
:105780000103002B14D0564B01221A61544B5B6865
:1057900003F00103002B0BD00123FB7200F0DCFCB3
:1057A0000346002B01D0FFF799FE0220FEF70AFC0A
:1057B0004B4B9B6803F00203002B24D0484B022282
:1057C0001A61474B5B6803F00103002B1BD10123D7
:1057D000FB72404B1B78DBB283F00103DBB2002B82
:1057E0000CD03F4B03F57033183300221A603C4B4A
:1057F00003F5703314334FF0FF321A6000F056FB9C
:105800000020FEF7DFFBFFF723FEF860FB68002BAC
:1058100003D17868FCF721FF58E0FB6803F400032C
:10582000002B05D000F002FAFB6823F40003FB60B4
:10583000FB68002B05DA00F001FBFB6823F0004356
:10584000FB60FB6803F40063002B05D000F0C4FA92
:10585000FB6823F40063FB60FB6803F00803002B84
:1058600005D000F01BFAFB6823F00803FB60FB681F
:1058700003F40053002B05D000F034F8FB6823F448
:105880000053FB60FB6803F48053002B05D000F04D
:1058900029FAFB6823F48053FB60FB6803F4802340
:1058A000002B05D000F038F8FB6823F48023FB6060
:1058B000FB6803F40023002B05D000F0B5F8FB686B
:1058C00023F40023FB607868FCF7C7FE1037BD4661
:1058D00080BD00BF8001002000800C40C40100207A
:1058E00000400C4080B500AF00F036FC094B1B684F
:1058F000D3F8A4301846FFF707FE064B1B680022BA
:1059000083F85420034B1B681846FFF7BBFD00BF0C
:1059100080BD00BF0C00002080B584B000AFFEF752
:105920006DF80346062B06D13D4B1B6893F82130DA
:105930001846FEF747FBFFF713FE03463B810023A3
:10594000FB6001237B8164E03A897B8913409BB231
:10595000002B58D0FB685BB263F07F035BB2DBB215
:105960001846FFF7A5FE78607868FFF72DFE3860CF
:105970003B6803F00103002B45D0FB685A01294B1B
:10598000134401229A60FB68002B24D17B681B69B9
:105990007A68928993420ED97B681B697A689289EA
:1059A0009A1A7B681A617B685B697A6892891A44E3
:1059B0007B685A6109E07B685A697B681B691A44F5
:1059C0007B685A617B6800221A61154B1B68184678
:1059D000FFF7B6FB17E07B681A69FB685901114BAA
:1059E0000B441B69C3F31203D21A7B685A617B68AC
:1059F0001A697B685B69D21A7B681A617B68DB78FD
:105A00001846FFF7CFFCFB680133FB607B895B0026
:105A10007B81FB68062B97DD00BF1037BD4680BD3C
:105A20000C0000200009104080B584B000AFFDF7E5
:105A3000E5FF0346062B06D1204B1B6893F8213067
:105A40001846FEF7BFFAFFF7A5FD03463B8100238A
:105A5000FB6001237B812AE03A897B8913409BB25A
:105A6000002B1ED0FB68DBB21846FFF721FE7860E2
:105A70007868FFF7C7FD38603B6803F00103002B2F
:105A800008D0FB685A010E4B134401229A607868D3
:105A900000F018F83B6803F00803002B01D000F079
:105AA0005FF8FB680133FB607B895B007B81FB68EF
:105AB000062BD1DD00BF1037BD4680BD0C00002095
:105AC000000B104080B582B000AF78607B689B7897
:105AD000002B24D17B681B697A68928993420ED986
